{
  "contractName": "MultiNumberBettingV3",
  "abi": [
    {
      "inputs": [
        {
          "name": "num1",
          "type": "uint8"
        },
        {
          "name": "num2",
          "type": "uint8"
        },
        {
          "name": "num3",
          "type": "uint8"
        }
      ],
      "payable": false,
      "stateMutability": "nonpayable",
      "type": "constructor"
    },
    {
      "constant": false,
      "inputs": [
        {
          "name": "betNumber",
          "type": "uint8"
        },
        {
          "name": "name",
          "type": "string"
        }
      ],
      "name": "guess",
      "outputs": [
        {
          "name": "",
          "type": "bool"
        }
      ],
      "payable": true,
      "stateMutability": "payable",
      "type": "function"
    },
    {
      "constant": true,
      "inputs": [],
      "name": "getLastWinner",
      "outputs": [
        {
          "name": "",
          "type": "string"
        }
      ],
      "payable": false,
      "stateMutability": "view",
      "type": "function"
    },
    {
      "constant": true,
      "inputs": [],
      "name": "totalGuesses",
      "outputs": [
        {
          "name": "",
          "type": "uint256"
        }
      ],
      "payable": false,
      "stateMutability": "view",
      "type": "function"
    },
    {
      "constant": true,
      "inputs": [],
      "name": "daysSinceLastWinning",
      "outputs": [
        {
          "name": "",
          "type": "uint256"
        }
      ],
      "payable": false,
      "stateMutability": "view",
      "type": "function"
    },
    {
      "constant": true,
      "inputs": [],
      "name": "hoursSinceLastWinning",
      "outputs": [
        {
          "name": "",
          "type": "uint256"
        }
      ],
      "payable": false,
      "stateMutability": "view",
      "type": "function"
    },
    {
      "constant": true,
      "inputs": [],
      "name": "minutesSinceLastWinning",
      "outputs": [
        {
          "name": "",
          "type": "uint256"
        }
      ],
      "payable": false,
      "stateMutability": "view",
      "type": "function"
    }
  ],
  "bytecode": "0x608060405234801561001057600080fd5b50604051606080610790833981018060405281019080805190602001909291908051906020019092919080519060200190929190505050826003600060038110151561005857fe5b602091828204019190066101000a81548160ff021916908360ff160217905550816003600160038110151561008957fe5b602091828204019190066101000a81548160ff021916908360ff16021790555080600360026003811015156100ba57fe5b602091828204019190066101000a81548160ff021916908360ff1602179055505050506106a4806100ec6000396000f300608060405260043610610078576000357c0100000000000000000000000000000000000000000000000000000000900463ffffffff16806315153cdc1461007d57806348992bfa146100a85780636d48a043146100d35780638ef28249146100fe57806395583f7114610129578063f88649a1146101aa575b600080fd5b34801561008957600080fd5b5061009261023a565b6040518082815260200191505060405180910390f35b3480156100b457600080fd5b506100bd610275565b6040518082815260200191505060405180910390f35b3480156100df57600080fd5b506100e86102b2565b6040518082815260200191505060405180910390f35b34801561010a57600080fd5b506101136102ea565b6040518082815260200191505060405180910390f35b610190600480360381019080803560ff169060200190929190803590602001908201803590602001908080601f01602080910402602001604051908101604052809392919081815260200183838082843782019150505050505091929192905050506102f7565b604051808215151515815260200191505060405180910390f35b3480156101b657600080fd5b506101bf6103e4565b6040518080602001828103825283818151815260200191508051906020019080838360005b838110156101ff5780820151818401526020810190506101e4565b50505050905090810190601f16801561022c5780820380516001836020036101000a031916815260200191505b509250505060405180910390f35b6000806000429150600060045414156102565760009250610270565b6018603c60045484030281151561026957fe5b0490508092505b505090565b60008060004291506000600454141561029157600092506102ad565b6018603c80600454850302028115156102a657fe5b0490508092505b505090565b6000806000429150600060045414156102ce57600092506102e5565b601860045483038115156102de57fe5b0490508092505b505090565b6000805460015401905090565b600080600090505b60038160ff1610156103c7578360ff1660038260ff1660038110151561032157fe5b602091828204019190069054906101000a900460ff1660ff1614156103ba5760016000815480929190600101919050555082600290805190602001906103689291906105d3565b504260048190555033600560006101000a81548173ffffffffffffffffffffffffffffffffffffffff021916908373ffffffffffffffffffffffffffffffffffffffff160217905550600191506103dd565b80806001019150506102ff565b6000808154809291906001019190505550600091505b5092915050565b606080606080600060028054600181600116156101000203166002900480601f0160208091040260200160405190810160405280929190818152602001828054600181600116156101000203166002900480156104825780601f1061045757610100808354040283529160200191610482565b820191906000526020600020905b81548152906001019060200180831161046557829003601f168201915b505050505093506000845114156104d0576040805190810160405280600381526020017f2a2a2a000000000000000000000000000000000000000000000000000000000081525094506105cc565b60036040519080825280601f01601f1916602001820160405280156105045781602001602082028038833980820191505090505b509250829150600090505b60038110801561051f5750835181105b156105c857838181518110151561053257fe5b9060200101517f010000000000000000000000000000000000000000000000000000000000000090047f010000000000000000000000000000000000000000000000000000000000000002828281518110151561058b57fe5b9060200101907effffffffffffffffffffffffffffffffffffffffffffffffffffffffffffff1916908160001a905350808060010191505061050f565b8194505b5050505090565b828054600181600116156101000203166002900490600052602060002090601f016020900481019282601f1061061457805160ff1916838001178555610642565b82800160010185558215610642579182015b82811115610641578251825591602001919060010190610626565b5b50905061064f9190610653565b5090565b61067591905b80821115610671576000816000905550600101610659565b5090565b905600a165627a7a72305820152f4d0276e1c997fb5219ad4a3711666aa56276cef3b7ad9cd03295c5a249f90029",
  "source": "pragma solidity ^0.4.22;\n\ncontract MultiNumberBettingV3 {\n\n    uint loserCount;\n    uint winnerCount;\n    string lastWinnerName;\n    uint8[3] storageArray;\n    uint lastWinnerAt;\n    address winner;\n\n   constructor(uint8 num1, uint8 num2, uint8 num3) public {\n        storageArray[0] = num1;   // 0\n        storageArray[1] = num2;   // 5\n        storageArray[2] = num3;   // 7\n    }  \n\n    function guess(uint8 betNumber, string name) public payable returns(bool) {\n    \n    for(uint8 i=0; i < storageArray.length; i++){\n        if (storageArray[i] == betNumber) {\n        // Increase the winner count\n          winnerCount++;\n          lastWinnerName = name;\n          lastWinnerAt = block.timestamp;\n          winner = msg.sender;\n          return true;\n        } \n     }\n     \n    loserCount++;\n    return false;\n    } \n\n  // Ex-3\n  function getLastWinner() public view returns (string) {\n\n      bytes memory nameBytes = bytes(lastWinnerName);\n      // If no winner send \"***\"\n      if (nameBytes.length == 0) {\n        return \"***\";\n      }\n\n    string memory retString = new string(3);\n\n    bytes memory toReturn = bytes(retString);\n\n    // 2nd check to cover a winner name less than 3 bytes\n    for (uint i = 0; (i < 3) && (i < nameBytes.length); i++) {\n      toReturn[i] = nameBytes[i];\n    }\n\n    return string(toReturn);\n  }\n\n// Total Bet played in the game\n  function totalGuesses() public view returns (uint){\n      return (winnerCount+loserCount);\n  }\n\n  function daysSinceLastWinning() public view returns(uint){\n    uint currentDateTime = block.timestamp;\n    uint dayPassed;\n\n    if (lastWinnerAt == 0) {\n      return 0;\n    } else {\n     dayPassed = (currentDateTime - lastWinnerAt)/24;\n     return dayPassed;\n    }\n  }\n \n  function hoursSinceLastWinning() public view returns(uint){\n    uint currentDateTime = block.timestamp;\n    uint dayPassed;\n\n    if (lastWinnerAt == 0) {\n      return 0;\n    } else {\n     dayPassed = ((currentDateTime - lastWinnerAt)*60)/24;\n     return dayPassed;\n    }\n  }\n\n  function minutesSinceLastWinning() public view returns(uint){\n    uint currentDateTime = block.timestamp;\n    uint dayPassed;\n\n    if (lastWinnerAt == 0) {\n      return 0;\n    } else {\n     dayPassed = ((currentDateTime - lastWinnerAt)*60*60)/24;\n     return dayPassed;\n    }\n  }\n}\n",
  "sourcePath": "c:\\Users\\devra\\Desktop\\BlockChain\\myRopsten\\truffle\\BlockchianLearningDemos\\contracts\\MultiNumberBettingV3.sol",
  "compiler": {
    "name": "solc",
    "version": "0.4.24+commit.e67f0147.Emscripten.clang"
  },
  "schemaVersion": "2.0.1",
  "updatedAt": "2018-07-13T00:53:24.730Z"
}