{
  "contractName": "MultiNumberBettingV3",
  "abi": [
    {
      "constant": true,
      "inputs": [],
      "name": "lastWinnerAt",
      "outputs": [
        {
          "name": "",
          "type": "uint256"
        }
      ],
      "payable": false,
      "stateMutability": "view",
      "type": "function"
    },
    {
      "inputs": [
        {
          "name": "num1",
          "type": "uint8"
        },
        {
          "name": "num2",
          "type": "uint8"
        },
        {
          "name": "num3",
          "type": "uint8"
        }
      ],
      "payable": false,
      "stateMutability": "nonpayable",
      "type": "constructor"
    },
    {
      "constant": false,
      "inputs": [
        {
          "name": "betNumber",
          "type": "uint8"
        },
        {
          "name": "name",
          "type": "string"
        }
      ],
      "name": "guess",
      "outputs": [
        {
          "name": "",
          "type": "bool"
        }
      ],
      "payable": false,
      "stateMutability": "nonpayable",
      "type": "function"
    },
    {
      "constant": false,
      "inputs": [],
      "name": "getLastWinner",
      "outputs": [
        {
          "name": "",
          "type": "string"
        }
      ],
      "payable": false,
      "stateMutability": "nonpayable",
      "type": "function"
    },
    {
      "constant": false,
      "inputs": [],
      "name": "totalGuesses",
      "outputs": [
        {
          "name": "",
          "type": "uint256"
        }
      ],
      "payable": false,
      "stateMutability": "nonpayable",
      "type": "function"
    },
    {
      "constant": false,
      "inputs": [],
      "name": "daysSinceLastWinning",
      "outputs": [
        {
          "name": "",
          "type": "uint256"
        }
      ],
      "payable": false,
      "stateMutability": "nonpayable",
      "type": "function"
    },
    {
      "constant": false,
      "inputs": [],
      "name": "hoursSinceLastWinning",
      "outputs": [
        {
          "name": "",
          "type": "uint256"
        }
      ],
      "payable": false,
      "stateMutability": "nonpayable",
      "type": "function"
    },
    {
      "constant": false,
      "inputs": [],
      "name": "minutesSinceLastWinning",
      "outputs": [
        {
          "name": "",
          "type": "uint256"
        }
      ],
      "payable": false,
      "stateMutability": "nonpayable",
      "type": "function"
    }
  ],
  "bytecode": "0x608060405234801561001057600080fd5b506040516060806106f7833981018060405281019080805190602001909291908051906020019092919080519060200190929190505050826003600060038110151561005857fe5b602091828204019190066101000a81548160ff021916908360ff160217905550816003600160038110151561008957fe5b602091828204019190066101000a81548160ff021916908360ff16021790555080600360026003811015156100ba57fe5b602091828204019190066101000a81548160ff021916908360ff16021790555050505061060b806100ec6000396000f300608060405260043610610083576000357c0100000000000000000000000000000000000000000000000000000000900463ffffffff1680630f8df5b41461008857806315153cdc146100b357806348992bfa146100de5780636d48a043146101095780638ef282491461013457806395583f711461015f578063f88649a1146101ed575b600080fd5b34801561009457600080fd5b5061009d61027d565b6040518082815260200191505060405180910390f35b3480156100bf57600080fd5b506100c8610283565b6040518082815260200191505060405180910390f35b3480156100ea57600080fd5b506100f3610288565b6040518082815260200191505060405180910390f35b34801561011557600080fd5b5061011e61028d565b6040518082815260200191505060405180910390f35b34801561014057600080fd5b50610149610292565b6040518082815260200191505060405180910390f35b34801561016b57600080fd5b506101d3600480360381019080803560ff169060200190929190803590602001908201803590602001908080601f016020809104026020016040519081016040528093929190818152602001838380828437820191505050505050919291929050505061029f565b604051808215151515815260200191505060405180910390f35b3480156101f957600080fd5b5061020261034b565b6040518080602001828103825283818151815260200191508051906020019080838360005b83811015610242578082015181840152602081019050610227565b50505050905090810190601f16801561026f5780820380516001836020036101000a031916815260200191505b509250505060405180910390f35b60045481565b600090565b600090565b600090565b6000805460015401905090565b600080600090505b60038160ff16101561032e578360ff1660038260ff166003811015156102c957fe5b602091828204019190069054906101000a900460ff1660ff16141561032157600160008154809291906001019190505550826002908051906020019061031092919061053a565b504260048190555060019150610344565b80806001019150506102a7565b6000808154809291906001019190505550600091505b5092915050565b606080606080600060028054600181600116156101000203166002900480601f0160208091040260200160405190810160405280929190818152602001828054600181600116156101000203166002900480156103e95780601f106103be576101008083540402835291602001916103e9565b820191906000526020600020905b8154815290600101906020018083116103cc57829003601f168201915b50505050509350600084511415610437576040805190810160405280600381526020017f2a2a2a00000000000000000000000000000000000000000000000000000000008152509450610533565b60036040519080825280601f01601f19166020018201604052801561046b5781602001602082028038833980820191505090505b509250829150600090505b6003811080156104865750835181105b1561052f57838181518110151561049957fe5b9060200101517f010000000000000000000000000000000000000000000000000000000000000090047f01000000000000000000000000000000000000000000000000000000000000000282828151811015156104f257fe5b9060200101907effffffffffffffffffffffffffffffffffffffffffffffffffffffffffffff1916908160001a9053508080600101915050610476565b8194505b5050505090565b828054600181600116156101000203166002900490600052602060002090601f016020900481019282601f1061057b57805160ff19168380011785556105a9565b828001600101855582156105a9579182015b828111156105a857825182559160200191906001019061058d565b5b5090506105b691906105ba565b5090565b6105dc91905b808211156105d85760008160009055506001016105c0565b5090565b905600a165627a7a723058205a8aba4e37b2b1daa449d26ad498e71a4872bc30ed2bdeb743c777695a544d680029",
  "source": "pragma solidity ^0.4.22;\n\ncontract MultiNumberBettingV3 {\n\n    uint loserCount;\n    uint winnerCount;\n    string lastWinnerName;\n    uint8[3] storageArray;\n    uint public lastWinnerAt;\n\n   constructor(uint8 num1, uint8 num2, uint8 num3) public {\n        storageArray[0] = num1;   // 0\n        storageArray[1] = num2;   // 5\n        storageArray[2] = num3;   // 7\n    }  \n\n    function guess(uint8 betNumber, string name) public returns(bool) {\n    \n    for(uint8 i=0; i < storageArray.length; i++){\n        if (storageArray[i] == betNumber) {\n        // Increase the winner count\n          winnerCount++;\n          lastWinnerName = name;\n          lastWinnerAt = block.timestamp;\n          return true;\n        } \n     }\n     \n    loserCount++;\n    return false;\n    } \n\n  // Ex-3\n  function getLastWinner() returns (string) {\n\n      bytes memory nameBytes = bytes(lastWinnerName);\n      // If no winner send \"***\"\n      if (nameBytes.length == 0) {\n        return \"***\";\n      }\n\n    string memory retString = new string(3);\n\n    bytes memory toReturn = bytes(retString);\n\n    // 2nd check to cover a winner name less than 3 bytes\n    for (uint i = 0; (i < 3) && (i < nameBytes.length); i++) {\n      toReturn[i] = nameBytes[i];\n    }\n\n    return string(toReturn);\n  }\n\n// Total Bet played in the game\n  function totalGuesses() public returns (uint){\n      return (winnerCount+loserCount);\n  }\n\n  function daysSinceLastWinning() returns(uint){\n\n  }\n \n  function hoursSinceLastWinning() returns(uint){\n\n  }\n\n  function minutesSinceLastWinning() returns(uint){\n\n  }\n\n \n}\n",
  "sourcePath": "c:\\Users\\devra\\Desktop\\BlockChain\\myRopsten\\truffle\\BlockchianLearningDemos\\contracts\\MultiNumberBettingV3.sol",
  "compiler": {
    "name": "solc",
    "version": "0.4.24+commit.e67f0147.Emscripten.clang"
  },
  "schemaVersion": "2.0.1",
  "updatedAt": "2018-07-13T00:25:35.629Z"
}