{
  "contractName": "MultiNumberBettingV1",
  "abi": [
    {
      "inputs": [
        {
          "name": "num1",
          "type": "uint8"
        },
        {
          "name": "num2",
          "type": "uint8"
        },
        {
          "name": "num3",
          "type": "uint8"
        }
      ],
      "payable": false,
      "stateMutability": "nonpayable",
      "type": "constructor"
    },
    {
      "constant": false,
      "inputs": [
        {
          "name": "betNumber",
          "type": "uint8"
        }
      ],
      "name": "guess",
      "outputs": [
        {
          "name": "",
          "type": "bool"
        }
      ],
      "payable": false,
      "stateMutability": "nonpayable",
      "type": "function"
    },
    {
      "constant": true,
      "inputs": [],
      "name": "totalGuesses",
      "outputs": [
        {
          "name": "",
          "type": "uint256"
        }
      ],
      "payable": false,
      "stateMutability": "view",
      "type": "function"
    }
  ],
  "bytecode": "0x608060405234801561001057600080fd5b50604051606080610281833981018060405281019080805190602001909291908051906020019092919080519060200190929190505050826002600060038110151561005857fe5b602091828204019190066101000a81548160ff021916908360ff160217905550816002600160038110151561008957fe5b602091828204019190066101000a81548160ff021916908360ff160217905550806002806003811015156100b957fe5b602091828204019190066101000a81548160ff021916908360ff160217905550505050610196806100eb6000396000f30060806040526004361061004c576000357c0100000000000000000000000000000000000000000000000000000000900463ffffffff1680634ba4c16b146100515780638ef2824914610099575b600080fd5b34801561005d57600080fd5b5061007f600480360381019080803560ff1690602001909291905050506100c4565b604051808215151515815260200191505060405180910390f35b3480156100a557600080fd5b506100ae61015d565b6040518082815260200191505060405180910390f35b60008060005b60038160ff161015610137578360ff1660028260ff166003811015156100ec57fe5b602091828204019190069054906101000a900460ff1660ff1614156101265760019150600160008154809291906001019190505550610137565b6000915080806001019150506100ca565b6000915081156101535760008081548092919060010191905055505b8192505050919050565b60008054600154019050905600a165627a7a7230582097a8993e5ce4c69b3fae6992a358af81354eaf61810fd4ed7e42c134b8183d680029",
  "source": "pragma solidity ^0.4.22;\n\ncontract MultiNumberBettingV1 {\n\n    uint loserCount;\n    uint winnerCount;\n    uint8[3] storageArray;\n\n    function guess(uint8 betNumber) public returns(bool) {\n      bool flag;\n\n     for(uint8 i; i < storageArray.length; i++){\n        if (storageArray[i] == betNumber) {\n          flag = true;\n          winnerCount++;\n          break;\n        } else {\n          flag = false;\n        }\n       \n     }\n     \n       if (flag = false){\n          loserCount++;\n       }\n      return flag;\n    } \n\n    function totalGuesses() public view returns (uint){\n      return (winnerCount + loserCount);\n    }\n\n     constructor(uint8 num1, uint8 num2, uint8 num3) public {\n        storageArray[0] = num1;   // 0\n        storageArray[1] = num2;   // 5\n        storageArray[2] = num3;   // 7\n    }   \n}\n",
  "sourcePath": "c:\\Users\\devra\\Desktop\\BlockChain\\myRopsten\\truffle\\BlockchianLearningDemos\\contracts\\MultiNumberBettingV1.sol",
  "compiler": {
    "name": "solc",
    "version": "0.4.24+commit.e67f0147.Emscripten.clang"
  },
  "schemaVersion": "2.0.1",
  "updatedAt": "2018-07-11T16:05:52.657Z"
}